{
  "_format": "hh-sol-artifact-1",
  "contractName": "IoTTemperatureStorage",
  "sourceName": "contracts/Temperature.sol",
  "abi": [
    {
      "anonymous": false,
      "inputs": [
        {
          "indexed": true,
          "internalType": "string",
          "name": "seedId",
          "type": "string"
        },
        {
          "indexed": false,
          "internalType": "int256",
          "name": "temperature",
          "type": "int256"
        },
        {
          "indexed": false,
          "internalType": "uint256",
          "name": "timestamp",
          "type": "uint256"
        }
      ],
      "name": "TemperatureStored",
      "type": "event"
    },
    {
      "inputs": [
        {
          "internalType": "string",
          "name": "seedId",
          "type": "string"
        },
        {
          "internalType": "string",
          "name": "seedName",
          "type": "string"
        }
      ],
      "name": "addSeed",
      "outputs": [],
      "stateMutability": "nonpayable",
      "type": "function"
    },
    {
      "inputs": [],
      "name": "getAllTemperatureRecords",
      "outputs": [
        {
          "components": [
            {
              "internalType": "uint256",
              "name": "timestamp",
              "type": "uint256"
            },
            {
              "internalType": "int256",
              "name": "temperature",
              "type": "int256"
            }
          ],
          "internalType": "struct IoTTemperatureStorage.TemperatureRecord[]",
          "name": "records",
          "type": "tuple[]"
        }
      ],
      "stateMutability": "view",
      "type": "function"
    },
    {
      "inputs": [],
      "name": "getLatestTemperature",
      "outputs": [
        {
          "internalType": "int256",
          "name": "temperature",
          "type": "int256"
        },
        {
          "internalType": "uint256",
          "name": "timestamp",
          "type": "uint256"
        }
      ],
      "stateMutability": "view",
      "type": "function"
    },
    {
      "inputs": [],
      "name": "getTotalRecords",
      "outputs": [
        {
          "internalType": "uint256",
          "name": "count",
          "type": "uint256"
        }
      ],
      "stateMutability": "view",
      "type": "function"
    },
    {
      "inputs": [
        {
          "internalType": "address",
          "name": "",
          "type": "address"
        }
      ],
      "name": "recordsCount",
      "outputs": [
        {
          "internalType": "uint256",
          "name": "",
          "type": "uint256"
        }
      ],
      "stateMutability": "view",
      "type": "function"
    },
    {
      "inputs": [
        {
          "internalType": "string",
          "name": "",
          "type": "string"
        }
      ],
      "name": "seeds",
      "outputs": [
        {
          "internalType": "string",
          "name": "seedId",
          "type": "string"
        },
        {
          "internalType": "string",
          "name": "seedName",
          "type": "string"
        },
        {
          "internalType": "int256",
          "name": "currentTemperature",
          "type": "int256"
        }
      ],
      "stateMutability": "view",
      "type": "function"
    },
    {
      "inputs": [
        {
          "internalType": "string",
          "name": "seedId",
          "type": "string"
        },
        {
          "internalType": "int256",
          "name": "currentTemperature",
          "type": "int256"
        }
      ],
      "name": "storeTemperature",
      "outputs": [],
      "stateMutability": "nonpayable",
      "type": "function"
    }
  ],
  "bytecode": "0x608060405234801561001057600080fd5b506111b7806100206000396000f3fe608060405234801561001057600080fd5b506004361061007d5760003560e01c80631b5409d91161005b5780631b5409d9146100ee5780633c6bda5d1461010d57806369c54bdc146101295780636dac8844146101595761007d565b80630aeacb5e146100825780630d6f7e9c146100a057806310bd1e55146100d2575b600080fd5b61008a610177565b604051610097919061067b565b60405180910390f35b6100ba60048036038101906100b591906107f0565b610184565b6040516100c9939291906108d1565b60405180910390f35b6100ec60048036038101906100e79190610916565b6102d4565b005b6100f66103ba565b60405161010492919061098e565b60405180910390f35b610127600480360381019061012291906109e3565b61044d565b005b610143600480360381019061013e9190610a9d565b6105d7565b604051610150919061067b565b60405180910390f35b6101616105ef565b60405161016e9190610bc6565b60405180910390f35b6000600180549050905090565b6000818051602081018201805184825260208301602085012081835280955050505050506000915090508060000180546101bd90610c17565b80601f01602080910402602001604051908101604052809291908181526020018280546101e990610c17565b80156102365780601f1061020b57610100808354040283529160200191610236565b820191906000526020600020905b81548152906001019060200180831161021957829003601f168201915b50505050509080600101805461024b90610c17565b80601f016020809104026020016040519081016040528092919081815260200182805461027790610c17565b80156102c45780601f10610299576101008083540402835291602001916102c4565b820191906000526020600020905b8154815290600101906020018083116102a757829003601f168201915b5050505050908060020154905083565b600080836040516102e59190610c84565b9081526020016040518091039020600101805461030190610c17565b905014610343576040517f08c379a000000000000000000000000000000000000000000000000000000000815260040161033a90610ce7565b60405180910390fd5b6040518060600160405280838152602001828152602001600081525060008360405161036f9190610c84565b908152602001604051809103902060008201518160000190816103929190610eb3565b5060208201518160010190816103a89190610eb3565b50604082015181600201559050505050565b600080600060018054905011610405576040517f08c379a00000000000000000000000000000000000000000000000000000000081526004016103fc90610fd1565b60405180910390fd5b600060018080805490506104199190611020565b8154811061042a57610429611054565b5b906000526020600020906002020190508060010154816000015492509250509091565b7ffffffffffffffffffffffffffffffffffffffffffffffffffffffffffffffeef8112156104b0576040517f08c379a00000000000000000000000000000000000000000000000000000000081526004016104a7906110f5565b60405180910390fd5b600080836040516104c19190610c84565b9081526020016040518091039020905060008160010180546104e290610c17565b905003610524576040517f08c379a000000000000000000000000000000000000000000000000000000000815260040161051b90611161565b60405180910390fd5b8181600201819055506001604051806040016040528042815260200184815250908060018154018082558091505060019003906000526020600020906002020160009091909190915060008201518160000155602082015181600101555050826040516105919190610c84565b60405180910390207faa8fd397acc75f3957a8d1d332cdb0107b491005dd503299a4bb4827b578c51d83426040516105ca92919061098e565b60405180910390a2505050565b60026020528060005260406000206000915090505481565b60606001805480602002602001604051908101604052809291908181526020016000905b8282101561065957838290600052602060002090600202016040518060400160405290816000820154815260200160018201548152505081526020019060010190610613565b50505050905090565b6000819050919050565b61067581610662565b82525050565b6000602082019050610690600083018461066c565b92915050565b6000604051905090565b600080fd5b600080fd5b600080fd5b600080fd5b6000601f19601f8301169050919050565b7f4e487b7100000000000000000000000000000000000000000000000000000000600052604160045260246000fd5b6106fd826106b4565b810181811067ffffffffffffffff8211171561071c5761071b6106c5565b5b80604052505050565b600061072f610696565b905061073b82826106f4565b919050565b600067ffffffffffffffff82111561075b5761075a6106c5565b5b610764826106b4565b9050602081019050919050565b82818337600083830152505050565b600061079361078e84610740565b610725565b9050828152602081018484840111156107af576107ae6106af565b5b6107ba848285610771565b509392505050565b600082601f8301126107d7576107d66106aa565b5b81356107e7848260208601610780565b91505092915050565b600060208284031215610806576108056106a0565b5b600082013567ffffffffffffffff811115610824576108236106a5565b5b610830848285016107c2565b91505092915050565b600081519050919050565b600082825260208201905092915050565b60005b83811015610873578082015181840152602081019050610858565b60008484015250505050565b600061088a82610839565b6108948185610844565b93506108a4818560208601610855565b6108ad816106b4565b840191505092915050565b6000819050919050565b6108cb816108b8565b82525050565b600060608201905081810360008301526108eb818661087f565b905081810360208301526108ff818561087f565b905061090e60408301846108c2565b949350505050565b6000806040838503121561092d5761092c6106a0565b5b600083013567ffffffffffffffff81111561094b5761094a6106a5565b5b610957858286016107c2565b925050602083013567ffffffffffffffff811115610978576109776106a5565b5b610984858286016107c2565b9150509250929050565b60006040820190506109a360008301856108c2565b6109b0602083018461066c565b9392505050565b6109c0816108b8565b81146109cb57600080fd5b50565b6000813590506109dd816109b7565b92915050565b600080604083850312156109fa576109f96106a0565b5b600083013567ffffffffffffffff811115610a1857610a176106a5565b5b610a24858286016107c2565b9250506020610a35858286016109ce565b9150509250929050565b600073ffffffffffffffffffffffffffffffffffffffff82169050919050565b6000610a6a82610a3f565b9050919050565b610a7a81610a5f565b8114610a8557600080fd5b50565b600081359050610a9781610a71565b92915050565b600060208284031215610ab357610ab26106a0565b5b6000610ac184828501610a88565b91505092915050565b600081519050919050565b600082825260208201905092915050565b6000819050602082019050919050565b610aff81610662565b82525050565b610b0e816108b8565b82525050565b604082016000820151610b2a6000850182610af6565b506020820151610b3d6020850182610b05565b50505050565b6000610b4f8383610b14565b60408301905092915050565b6000602082019050919050565b6000610b7382610aca565b610b7d8185610ad5565b9350610b8883610ae6565b8060005b83811015610bb9578151610ba08882610b43565b9750610bab83610b5b565b925050600181019050610b8c565b5085935050505092915050565b60006020820190508181036000830152610be08184610b68565b905092915050565b7f4e487b7100000000000000000000000000000000000000000000000000000000600052602260045260246000fd5b60006002820490506001821680610c2f57607f821691505b602082108103610c4257610c41610be8565b5b50919050565b600081905092915050565b6000610c5e82610839565b610c688185610c48565b9350610c78818560208601610855565b80840191505092915050565b6000610c908284610c53565b915081905092915050565b7f5365656420616c72656164792065786973747300000000000000000000000000600082015250565b6000610cd1601383610844565b9150610cdc82610c9b565b602082019050919050565b60006020820190508181036000830152610d0081610cc4565b9050919050565b60008190508160005260206000209050919050565b60006020601f8301049050919050565b600082821b905092915050565b600060088302610d697fffffffffffffffffffffffffffffffffffffffffffffffffffffffffffffffff82610d2c565b610d738683610d2c565b95508019841693508086168417925050509392505050565b6000819050919050565b6000610db0610dab610da684610662565b610d8b565b610662565b9050919050565b6000819050919050565b610dca83610d95565b610dde610dd682610db7565b848454610d39565b825550505050565b600090565b610df3610de6565b610dfe818484610dc1565b505050565b5b81811015610e2257610e17600082610deb565b600181019050610e04565b5050565b601f821115610e6757610e3881610d07565b610e4184610d1c565b81016020851015610e50578190505b610e64610e5c85610d1c565b830182610e03565b50505b505050565b600082821c905092915050565b6000610e8a60001984600802610e6c565b1980831691505092915050565b6000610ea38383610e79565b9150826002028217905092915050565b610ebc82610839565b67ffffffffffffffff811115610ed557610ed46106c5565b5b610edf8254610c17565b610eea828285610e26565b600060209050601f831160018114610f1d5760008415610f0b578287015190505b610f158582610e97565b865550610f7d565b601f198416610f2b86610d07565b60005b82811015610f5357848901518255600182019150602085019450602081019050610f2e565b86831015610f705784890151610f6c601f891682610e79565b8355505b6001600288020188555050505b505050505050565b7f4e6f2074656d7065726174757265207265636f72647320617661696c61626c65600082015250565b6000610fbb602083610844565b9150610fc682610f85565b602082019050919050565b60006020820190508181036000830152610fea81610fae565b9050919050565b7f4e487b7100000000000000000000000000000000000000000000000000000000600052601160045260246000fd5b600061102b82610662565b915061103683610662565b925082820390508181111561104e5761104d610ff1565b5b92915050565b7f4e487b7100000000000000000000000000000000000000000000000000000000600052603260045260246000fd5b7f54656d7065726174757265206d7573742062652061626f7665206162736f6c7560008201527f7465207a65726f00000000000000000000000000000000000000000000000000602082015250565b60006110df602783610844565b91506110ea82611083565b604082019050919050565b6000602082019050818103600083015261110e816110d2565b9050919050565b7f53656564206e6f7420666f756e64000000000000000000000000000000000000600082015250565b600061114b600e83610844565b915061115682611115565b602082019050919050565b6000602082019050818103600083015261117a8161113e565b905091905056fea264697066735822122072fe2c7dc027dadab69df9c52e680a0be9892a88d9a90d20d7bad081b873079e64736f6c63430008140033",
  "linkReferences": {},
  "deployedLinkReferences": {}
}